{
  "_format": "hh-sol-artifact-1",
  "contractName": "Domains",
  "sourceName": "contracts/Domains.sol",
  "abi": [
    {
      "inputs": [
        {
          "internalType": "string",
          "name": "_tld",
          "type": "string"
        }
      ],
      "stateMutability": "payable",
      "type": "constructor"
    },
    {
      "inputs": [],
      "name": "AlreadyRegistered",
      "type": "error"
    },
    {
      "inputs": [
        {
          "internalType": "string",
          "name": "name",
          "type": "string"
        }
      ],
      "name": "InvalidName",
      "type": "error"
    },
    {
      "inputs": [],
      "name": "Unauthorized",
      "type": "error"
    },
    {
      "anonymous": false,
      "inputs": [
        {
          "indexed": true,
          "internalType": "address",
          "name": "owner",
          "type": "address"
        },
        {
          "indexed": true,
          "internalType": "address",
          "name": "approved",
          "type": "address"
        },
        {
          "indexed": true,
          "internalType": "uint256",
          "name": "tokenId",
          "type": "uint256"
        }
      ],
      "name": "Approval",
      "type": "event"
    },
    {
      "anonymous": false,
      "inputs": [
        {
          "indexed": true,
          "internalType": "address",
          "name": "owner",
          "type": "address"
        },
        {
          "indexed": true,
          "internalType": "address",
          "name": "operator",
          "type": "address"
        },
        {
          "indexed": false,
          "internalType": "bool",
          "name": "approved",
          "type": "bool"
        }
      ],
      "name": "ApprovalForAll",
      "type": "event"
    },
    {
      "anonymous": false,
      "inputs": [
        {
          "indexed": true,
          "internalType": "address",
          "name": "from",
          "type": "address"
        },
        {
          "indexed": true,
          "internalType": "address",
          "name": "to",
          "type": "address"
        },
        {
          "indexed": true,
          "internalType": "uint256",
          "name": "tokenId",
          "type": "uint256"
        }
      ],
      "name": "Transfer",
      "type": "event"
    },
    {
      "inputs": [
        {
          "internalType": "address",
          "name": "to",
          "type": "address"
        },
        {
          "internalType": "uint256",
          "name": "tokenId",
          "type": "uint256"
        }
      ],
      "name": "approve",
      "outputs": [],
      "stateMutability": "nonpayable",
      "type": "function"
    },
    {
      "inputs": [
        {
          "internalType": "address",
          "name": "owner",
          "type": "address"
        }
      ],
      "name": "balanceOf",
      "outputs": [
        {
          "internalType": "uint256",
          "name": "",
          "type": "uint256"
        }
      ],
      "stateMutability": "view",
      "type": "function"
    },
    {
      "inputs": [
        {
          "internalType": "string",
          "name": "",
          "type": "string"
        }
      ],
      "name": "domains",
      "outputs": [
        {
          "internalType": "address",
          "name": "",
          "type": "address"
        }
      ],
      "stateMutability": "view",
      "type": "function"
    },
    {
      "inputs": [
        {
          "internalType": "string",
          "name": "name",
          "type": "string"
        }
      ],
      "name": "getAddress",
      "outputs": [
        {
          "internalType": "address",
          "name": "",
          "type": "address"
        }
      ],
      "stateMutability": "view",
      "type": "function"
    },
    {
      "inputs": [],
      "name": "getAllNames",
      "outputs": [
        {
          "internalType": "string[]",
          "name": "",
          "type": "string[]"
        }
      ],
      "stateMutability": "view",
      "type": "function"
    },
    {
      "inputs": [
        {
          "internalType": "uint256",
          "name": "tokenId",
          "type": "uint256"
        }
      ],
      "name": "getApproved",
      "outputs": [
        {
          "internalType": "address",
          "name": "",
          "type": "address"
        }
      ],
      "stateMutability": "view",
      "type": "function"
    },
    {
      "inputs": [
        {
          "internalType": "string",
          "name": "name",
          "type": "string"
        },
        {
          "internalType": "string",
          "name": "record",
          "type": "string"
        }
      ],
      "name": "getRecord",
      "outputs": [
        {
          "internalType": "string",
          "name": "",
          "type": "string"
        }
      ],
      "stateMutability": "view",
      "type": "function"
    },
    {
      "inputs": [
        {
          "internalType": "address",
          "name": "owner",
          "type": "address"
        },
        {
          "internalType": "address",
          "name": "operator",
          "type": "address"
        }
      ],
      "name": "isApprovedForAll",
      "outputs": [
        {
          "internalType": "bool",
          "name": "",
          "type": "bool"
        }
      ],
      "stateMutability": "view",
      "type": "function"
    },
    {
      "inputs": [],
      "name": "isOwner",
      "outputs": [
        {
          "internalType": "bool",
          "name": "",
          "type": "bool"
        }
      ],
      "stateMutability": "view",
      "type": "function"
    },
    {
      "inputs": [],
      "name": "name",
      "outputs": [
        {
          "internalType": "string",
          "name": "",
          "type": "string"
        }
      ],
      "stateMutability": "view",
      "type": "function"
    },
    {
      "inputs": [],
      "name": "owner",
      "outputs": [
        {
          "internalType": "address payable",
          "name": "",
          "type": "address"
        }
      ],
      "stateMutability": "view",
      "type": "function"
    },
    {
      "inputs": [
        {
          "internalType": "uint256",
          "name": "tokenId",
          "type": "uint256"
        }
      ],
      "name": "ownerOf",
      "outputs": [
        {
          "internalType": "address",
          "name": "",
          "type": "address"
        }
      ],
      "stateMutability": "view",
      "type": "function"
    },
    {
      "inputs": [
        {
          "internalType": "string",
          "name": "name",
          "type": "string"
        }
      ],
      "name": "price",
      "outputs": [
        {
          "internalType": "uint256",
          "name": "",
          "type": "uint256"
        }
      ],
      "stateMutability": "pure",
      "type": "function"
    },
    {
      "inputs": [
        {
          "internalType": "string",
          "name": "",
          "type": "string"
        },
        {
          "internalType": "string",
          "name": "",
          "type": "string"
        }
      ],
      "name": "records",
      "outputs": [
        {
          "internalType": "string",
          "name": "",
          "type": "string"
        }
      ],
      "stateMutability": "view",
      "type": "function"
    },
    {
      "inputs": [
        {
          "internalType": "string",
          "name": "name",
          "type": "string"
        }
      ],
      "name": "registerDomain",
      "outputs": [],
      "stateMutability": "payable",
      "type": "function"
    },
    {
      "inputs": [
        {
          "internalType": "address",
          "name": "from",
          "type": "address"
        },
        {
          "internalType": "address",
          "name": "to",
          "type": "address"
        },
        {
          "internalType": "uint256",
          "name": "tokenId",
          "type": "uint256"
        }
      ],
      "name": "safeTransferFrom",
      "outputs": [],
      "stateMutability": "nonpayable",
      "type": "function"
    },
    {
      "inputs": [
        {
          "internalType": "address",
          "name": "from",
          "type": "address"
        },
        {
          "internalType": "address",
          "name": "to",
          "type": "address"
        },
        {
          "internalType": "uint256",
          "name": "tokenId",
          "type": "uint256"
        },
        {
          "internalType": "bytes",
          "name": "_data",
          "type": "bytes"
        }
      ],
      "name": "safeTransferFrom",
      "outputs": [],
      "stateMutability": "nonpayable",
      "type": "function"
    },
    {
      "inputs": [
        {
          "internalType": "address",
          "name": "operator",
          "type": "address"
        },
        {
          "internalType": "bool",
          "name": "approved",
          "type": "bool"
        }
      ],
      "name": "setApprovalForAll",
      "outputs": [],
      "stateMutability": "nonpayable",
      "type": "function"
    },
    {
      "inputs": [
        {
          "internalType": "string",
          "name": "name",
          "type": "string"
        },
        {
          "internalType": "string",
          "name": "record",
          "type": "string"
        },
        {
          "internalType": "string",
          "name": "value",
          "type": "string"
        }
      ],
      "name": "setRecord",
      "outputs": [],
      "stateMutability": "nonpayable",
      "type": "function"
    },
    {
      "inputs": [
        {
          "internalType": "bytes4",
          "name": "interfaceId",
          "type": "bytes4"
        }
      ],
      "name": "supportsInterface",
      "outputs": [
        {
          "internalType": "bool",
          "name": "",
          "type": "bool"
        }
      ],
      "stateMutability": "view",
      "type": "function"
    },
    {
      "inputs": [],
      "name": "symbol",
      "outputs": [
        {
          "internalType": "string",
          "name": "",
          "type": "string"
        }
      ],
      "stateMutability": "view",
      "type": "function"
    },
    {
      "inputs": [],
      "name": "tld",
      "outputs": [
        {
          "internalType": "string",
          "name": "",
          "type": "string"
        }
      ],
      "stateMutability": "view",
      "type": "function"
    },
    {
      "inputs": [
        {
          "internalType": "uint256",
          "name": "tokenId",
          "type": "uint256"
        }
      ],
      "name": "tokenURI",
      "outputs": [
        {
          "internalType": "string",
          "name": "",
          "type": "string"
        }
      ],
      "stateMutability": "view",
      "type": "function"
    },
    {
      "inputs": [
        {
          "internalType": "address",
          "name": "from",
          "type": "address"
        },
        {
          "internalType": "address",
          "name": "to",
          "type": "address"
        },
        {
          "internalType": "uint256",
          "name": "tokenId",
          "type": "uint256"
        }
      ],
      "name": "transferFrom",
      "outputs": [],
      "stateMutability": "nonpayable",
      "type": "function"
    },
    {
      "inputs": [
        {
          "internalType": "string",
          "name": "name",
          "type": "string"
        }
      ],
      "name": "valid",
      "outputs": [
        {
          "internalType": "bool",
          "name": "",
          "type": "bool"
        }
      ],
      "stateMutability": "pure",
      "type": "function"
    },
    {
      "inputs": [],
      "name": "withdraw",
      "outputs": [],
      "stateMutability": "nonpayable",
      "type": "function"
    }
  ],
  "bytecode": "0x6080604052604051806108a0016040528061086b81526020016200543161086b91396009908051906020019062000038929190620002c8565b506040518060400160405280600d81526020017f3c2f746578743e3c2f7376673e00000000000000000000000000000000000000815250600a908051906020019062000086929190620002c8565b5060405162005c9c38038062005c9c8339818101604052810190620000ac919062000515565b6040518060400160405280601a81526020017f456d7069726520446f6d61696e204e616d6520536572766963650000000000008152506040518060400160405280600481526020017f45444e5300000000000000000000000000000000000000000000000000000000815250816000908051906020019062000130929190620002c8565b50806001908051906020019062000149929190620002c8565b50505033600e60006101000a81548173ffffffffffffffffffffffffffffffffffffffff021916908373ffffffffffffffffffffffffffffffffffffffff1602179055508060089080519060200190620001a5929190620002c8565b50620001f26040518060400160405280601881526020017f2573206e616d652073657276696365206465706c6f796564000000000000000081525082620001f960201b62001b1e1760201c565b5062000663565b6200029b828260405160240162000212929190620005c3565b6040516020818303038152906040527f4b5c4277000000000000000000000000000000000000000000000000000000007bffffffffffffffffffffffffffffffffffffffffffffffffffffffff19166020820180517bffffffffffffffffffffffffffffffffffffffffffffffffffffffff83818316178352505050506200029f60201b60201c565b5050565b60008151905060006a636f6e736f6c652e6c6f679050602083016000808483855afa5050505050565b828054620002d6906200062d565b90600052602060002090601f016020900481019282620002fa576000855562000346565b82601f106200031557805160ff191683800117855562000346565b8280016001018555821562000346579182015b828111156200034557825182559160200191906001019062000328565b5b50905062000355919062000359565b5090565b5b80821115620003745760008160009055506001016200035a565b5090565b6000604051905090565b600080fd5b600080fd5b600080fd5b600080fd5b6000601f19601f8301169050919050565b7f4e487b7100000000000000000000000000000000000000000000000000000000600052604160045260246000fd5b620003e18262000396565b810181811067ffffffffffffffff82111715620004035762000402620003a7565b5b80604052505050565b60006200041862000378565b9050620004268282620003d6565b919050565b600067ffffffffffffffff821115620004495762000448620003a7565b5b620004548262000396565b9050602081019050919050565b60005b838110156200048157808201518184015260208101905062000464565b8381111562000491576000848401525b50505050565b6000620004ae620004a8846200042b565b6200040c565b905082815260208101848484011115620004cd57620004cc62000391565b5b620004da84828562000461565b509392505050565b600082601f830112620004fa57620004f96200038c565b5b81516200050c84826020860162000497565b91505092915050565b6000602082840312156200052e576200052d62000382565b5b600082015167ffffffffffffffff8111156200054f576200054e62000387565b5b6200055d84828501620004e2565b91505092915050565b600081519050919050565b600082825260208201905092915050565b60006200058f8262000566565b6200059b818562000571565b9350620005ad81856020860162000461565b620005b88162000396565b840191505092915050565b60006040820190508181036000830152620005df818562000582565b90508181036020830152620005f5818462000582565b90509392505050565b7f4e487b7100000000000000000000000000000000000000000000000000000000600052602260045260246000fd5b600060028204905060018216806200064657607f821691505b602082108114156200065d576200065c620005fe565b5b50919050565b614dbe80620006736000396000f3fe6080604052600436106101815760003560e01c80638a53ddb9116100d1578063a5cad08a1161008a578063c87b56dd11610064578063c87b56dd146105ab578063e985e9c5146105e8578063fb825e5f14610625578063fe2c61981461065057610181565b8063a5cad08a14610529578063b88d4fde14610545578063bf40fac11461056e57610181565b80638a53ddb9146104055780638da5cb5b146104425780638f32d59b1461046d57806395d89b41146104985780639791c097146104c3578063a22cb4651461050057610181565b80632d5514321161013e5780636352211e116101185780636352211e1461032557806370a0823114610362578063721c2edb1461039f5780637d7c963b146103c857610181565b80632d551432146102ba5780633ccfd60b146102e557806342842e0e146102fc57610181565b806301ffc9a71461018657806306fdde03146101c3578063081812fc146101ee578063095ea7b31461022b57806323b872dd14610254578063264492351461027d575b600080fd5b34801561019257600080fd5b506101ad60048036038101906101a89190613003565b61068d565b6040516101ba919061304b565b60405180910390f35b3480156101cf57600080fd5b506101d861076f565b6040516101e591906130ff565b60405180910390f35b3480156101fa57600080fd5b5061021560048036038101906102109190613157565b610801565b60405161022291906131c5565b60405180910390f35b34801561023757600080fd5b50610252600480360381019061024d919061320c565b610886565b005b34801561026057600080fd5b5061027b6004803603810190610276919061324c565b61099e565b005b34801561028957600080fd5b506102a4600480360381019061029f91906133d4565b6109fe565b6040516102b191906131c5565b60405180910390f35b3480156102c657600080fd5b506102cf610a47565b6040516102dc91906130ff565b60405180910390f35b3480156102f157600080fd5b506102fa610ad5565b005b34801561030857600080fd5b50610323600480360381019061031e919061324c565b610b9b565b005b34801561033157600080fd5b5061034c60048036038101906103479190613157565b610bbb565b60405161035991906131c5565b60405180910390f35b34801561036e57600080fd5b506103896004803603810190610384919061341d565b610c6d565b6040516103969190613459565b60405180910390f35b3480156103ab57600080fd5b506103c660048036038101906103c191906134d4565b610d25565b005b3480156103d457600080fd5b506103ef60048036038101906103ea9190613588565b610e20565b6040516103fc91906130ff565b60405180910390f35b34801561041157600080fd5b5061042c60048036038101906104279190613600565b610ef9565b60405161043991906130ff565b60405180910390f35b34801561044e57600080fd5b50610457610fcc565b60405161046491906136a2565b60405180910390f35b34801561047957600080fd5b50610482610ff2565b60405161048f919061304b565b60405180910390f35b3480156104a457600080fd5b506104ad61104a565b6040516104ba91906130ff565b60405180910390f35b3480156104cf57600080fd5b506104ea60048036038101906104e591906136bd565b6110dc565b6040516104f7919061304b565b60405180910390f35b34801561050c57600080fd5b5061052760048036038101906105229190613736565b611190565b005b610543600480360381019061053e91906136bd565b6111a6565b005b34801561055157600080fd5b5061056c60048036038101906105679190613817565b611624565b005b34801561057a57600080fd5b50610595600480360381019061059091906136bd565b611686565b6040516105a291906131c5565b60405180910390f35b3480156105b757600080fd5b506105d260048036038101906105cd9190613157565b6116d1565b6040516105df91906130ff565b60405180910390f35b3480156105f457600080fd5b5061060f600480360381019061060a919061389a565b611823565b60405161061c919061304b565b60405180910390f35b34801561063157600080fd5b5061063a6118b7565b60405161064791906139e6565b60405180910390f35b34801561065c57600080fd5b50610677600480360381019061067291906136bd565b611a78565b6040516106849190613459565b60405180910390f35b60007f80ac58cd000000000000000000000000000000000000000000000000000000007bffffffffffffffffffffffffffffffffffffffffffffffffffffffff1916827bffffffffffffffffffffffffffffffffffffffffffffffffffffffff1916148061075857507f5b5e139f000000000000000000000000000000000000000000000000000000007bffffffffffffffffffffffffffffffffffffffffffffffffffffffff1916827bffffffffffffffffffffffffffffffffffffffffffffffffffffffff1916145b80610768575061076782611bba565b5b9050919050565b60606000805461077e90613a37565b80601f01602080910402602001604051908101604052809291908181526020018280546107aa90613a37565b80156107f75780601f106107cc576101008083540402835291602001916107f7565b820191906000526020600020905b8154815290600101906020018083116107da57829003601f168201915b5050505050905090565b600061080c82611c24565b61084b576040517f08c379a000000000000000000000000000000000000000000000000000000000815260040161084290613adb565b60405180910390fd5b6004600083815260200190815260200160002060009054906101000a900473ffffffffffffffffffffffffffffffffffffffff169050919050565b600061089182610bbb565b90508073ffffffffffffffffffffffffffffffffffffffff168373ffffffffffffffffffffffffffffffffffffffff161415610902576040517f08c379a00000000000000000000000000000000000000000000000000000000081526004016108f990613b6d565b60405180910390fd5b8073ffffffffffffffffffffffffffffffffffffffff16610921611c90565b73ffffffffffffffffffffffffffffffffffffffff161480610950575061094f8161094a611c90565b611823565b5b61098f576040517f08c379a000000000000000000000000000000000000000000000000000000000815260040161098690613bff565b60405180910390fd5b6109998383611c98565b505050565b6109af6109a9611c90565b82611d51565b6109ee576040517f08c379a00000000000000000000000000000000000000000000000000000000081526004016109e590613c91565b60405180910390fd5b6109f9838383611e2f565b505050565b600b818051602081018201805184825260208301602085012081835280955050505050506000915054906101000a900473ffffffffffffffffffffffffffffffffffffffff1681565b60088054610a5490613a37565b80601f0160208091040260200160405190810160405280929190818152602001828054610a8090613a37565b8015610acd5780601f10610aa257610100808354040283529160200191610acd565b820191906000526020600020905b815481529060010190602001808311610ab057829003601f168201915b505050505081565b610add610ff2565b610ae657600080fd5b600047905060003373ffffffffffffffffffffffffffffffffffffffff1682604051610b1190613ce2565b60006040518083038185875af1925050503d8060008114610b4e576040519150601f19603f3d011682016040523d82523d6000602084013e610b53565b606091505b5050905080610b97576040517f08c379a0000000000000000000000000000000000000000000000000000000008152600401610b8e90613d43565b60405180910390fd5b5050565b610bb683838360405180602001604052806000815250611624565b505050565b6000806002600084815260200190815260200160002060009054906101000a900473ffffffffffffffffffffffffffffffffffffffff169050600073ffffffffffffffffffffffffffffffffffffffff168173ffffffffffffffffffffffffffffffffffffffff161415610c64576040517f08c379a0000000000000000000000000000000000000000000000000000000008152600401610c5b90613dd5565b60405180910390fd5b80915050919050565b60008073ffffffffffffffffffffffffffffffffffffffff168273ffffffffffffffffffffffffffffffffffffffff161415610cde576040517f08c379a0000000000000000000000000000000000000000000000000000000008152600401610cd590613e67565b60405180910390fd5b600360008373ffffffffffffffffffffffffffffffffffffffff1673ffffffffffffffffffffffffffffffffffffffff168152602001908152602001600020549050919050565b600b8686604051610d37929190613eb7565b908152602001604051809103902060009054906101000a900473ffffffffffffffffffffffffffffffffffffffff1673ffffffffffffffffffffffffffffffffffffffff163373ffffffffffffffffffffffffffffffffffffffff1614610dca576040517f82b4290000000000000000000000000000000000000000000000000000000000815260040160405180910390fd5b8181600c8888604051610dde929190613eb7565b90815260200160405180910390208686604051610dfc929190613eb7565b90815260200160405180910390209190610e17929190612e6e565b50505050505050565b600c8280516020810182018051848252602083016020850120818352809550505050505081805160208101820180518482526020830160208501208183528095505050505050600091509150508054610e7890613a37565b80601f0160208091040260200160405190810160405280929190818152602001828054610ea490613a37565b8015610ef15780601f10610ec657610100808354040283529160200191610ef1565b820191906000526020600020905b815481529060010190602001808311610ed457829003601f168201915b505050505081565b6060600c8585604051610f0d929190613eb7565b90815260200160405180910390208383604051610f2b929190613eb7565b90815260200160405180910390208054610f4490613a37565b80601f0160208091040260200160405190810160405280929190818152602001828054610f7090613a37565b8015610fbd5780601f10610f9257610100808354040283529160200191610fbd565b820191906000526020600020905b815481529060010190602001808311610fa057829003601f168201915b50505050509050949350505050565b600e60009054906101000a900473ffffffffffffffffffffffffffffffffffffffff1681565b6000600e60009054906101000a900473ffffffffffffffffffffffffffffffffffffffff1673ffffffffffffffffffffffffffffffffffffffff163373ffffffffffffffffffffffffffffffffffffffff1614905090565b60606001805461105990613a37565b80601f016020809104026020016040519081016040528092919081815260200182805461108590613a37565b80156110d25780601f106110a7576101008083540402835291602001916110d2565b820191906000526020600020905b8154815290600101906020018083116110b557829003601f168201915b5050505050905090565b6000600361112d84848080601f016020809104026020016040519081016040528093929190818152602001838380828437600081840152601f19601f82011690508083019250505050505050612096565b101580156111885750600a61118584848080601f016020809104026020016040519081016040528093929190818152602001838380828437600081840152601f19601f82011690508083019250505050505050612096565b11155b905092915050565b6111a261119b611c90565b838361224b565b5050565b600073ffffffffffffffffffffffffffffffffffffffff16600b83836040516111d0929190613eb7565b908152602001604051809103902060009054906101000a900473ffffffffffffffffffffffffffffffffffffffff1673ffffffffffffffffffffffffffffffffffffffff161461124c576040517f3a81d6fc00000000000000000000000000000000000000000000000000000000815260040160405180910390fd5b61125682826110dc565b6112995781816040517f7f19f48d000000000000000000000000000000000000000000000000000000008152600401611290929190613efd565b60405180910390fd5b60006112a58383611a78565b9050803410156112ea576040517f08c379a00000000000000000000000000000000000000000000000000000000081526004016112e190613f6d565b60405180910390fd5b6000838360086040516020016113029392919061406d565b60405160208183030381529060405290506000600982600a60405160200161132c939291906140cf565b6040516020818303038152906040529050600061134960076123b8565b9050600061139a87878080601f016020809104026020016040519081016040528093929190818152602001838380828437600081840152601f19601f82011690508083019250505050505050612096565b905060006113a7826123c6565b905061149b604051806060016040528060318152602001614cbc6031913989898080601f016020809104026020016040519081016040528093929190818152602001838380828437600081840152601f19601f820116905080830192505050505050506008805461141790613a37565b80601f016020809104026020016040519081016040528092919081815260200182805461144390613a37565b80156114905780601f1061146557610100808354040283529160200191611490565b820191906000526020600020905b81548152906001019060200180831161147357829003601f168201915b505050505086612527565b60006114d1866114aa876125c9565b846040516020016114bd9392919061427c565b6040516020818303038152906040526125c9565b90506000816040516020016114e69190614325565b6040516020818303038152906040529050611518604051806060016040528060398152602001614c8360399139612761565b6115576040518060400160405280600e81526020017f46696e616c20746f6b656e55524900000000000000000000000000000000000081525082611b1e565b611578604051806060016040528060398152602001614ced60399139612761565b61158233866127fa565b61158c8582612818565b33600b8b8b60405161159f929190613eb7565b908152602001604051809103902060006101000a81548173ffffffffffffffffffffffffffffffffffffffff021916908373ffffffffffffffffffffffffffffffffffffffff1602179055506115f5600761288c565b8989600d60008881526020019081526020016000209190611617929190612e6e565b5050505050505050505050565b61163561162f611c90565b83611d51565b611674576040517f08c379a000000000000000000000000000000000000000000000000000000000815260040161166b90613c91565b60405180910390fd5b611680848484846128a2565b50505050565b6000600b838360405161169a929190613eb7565b908152602001604051809103902060009054906101000a900473ffffffffffffffffffffffffffffffffffffffff16905092915050565b60606116dc82611c24565b61171b576040517f08c379a0000000000000000000000000000000000000000000000000000000008152600401611712906143b9565b60405180910390fd5b600060066000848152602001908152602001600020805461173b90613a37565b80601f016020809104026020016040519081016040528092919081815260200182805461176790613a37565b80156117b45780601f10611789576101008083540402835291602001916117b4565b820191906000526020600020905b81548152906001019060200180831161179757829003601f168201915b5050505050905060006117c56128fe565b90506000815114156117db57819250505061181e565b6000825111156118105780826040516020016117f89291906143d9565b6040516020818303038152906040529250505061181e565b61181984612915565b925050505b919050565b6000600560008473ffffffffffffffffffffffffffffffffffffffff1673ffffffffffffffffffffffffffffffffffffffff16815260200190815260200160002060008373ffffffffffffffffffffffffffffffffffffffff1673ffffffffffffffffffffffffffffffffffffffff16815260200190815260200160002060009054906101000a900460ff16905092915050565b60606118da604051806060016040528060238152602001614d2660239139612761565b60006118e660076123b8565b67ffffffffffffffff8111156118ff576118fe6132a9565b5b60405190808252806020026020018201604052801561193257816020015b606081526020019060019003908161191d5790505b50905060005b61194260076123b8565b811015611a7057600d6000828152602001908152602001600020805461196790613a37565b80601f016020809104026020016040519081016040528092919081815260200182805461199390613a37565b80156119e05780601f106119b5576101008083540402835291602001916119e0565b820191906000526020600020905b8154815290600101906020018083116119c357829003601f168201915b50505050508282815181106119f8576119f76143fd565b5b6020026020010181905250611a5d6040518060400160405280601781526020017f4e616d6520666f7220746f6b656e20256420697320257300000000000000000081525082848481518110611a5057611a4f6143fd565b5b60200260200101516129bc565b8080611a689061445b565b915050611938565b508091505090565b600080611ac884848080601f016020809104026020016040519081016040528093929190818152602001838380828437600081840152601f19601f82011690508083019250505050505050612096565b905060008111611ad757600080fd5b6003811415611af1576706f05b59d3b20000915050611b18565b6004811415611b0b57670429d069189e0000915050611b18565b67016345785d8a00009150505b92915050565b611bb68282604051602401611b349291906144a4565b6040516020818303038152906040527f4b5c4277000000000000000000000000000000000000000000000000000000007bffffffffffffffffffffffffffffffffffffffffffffffffffffffff19166020820180517bffffffffffffffffffffffffffffffffffffffffffffffffffffffff8381831617835250505050612a5b565b5050565b60007f01ffc9a7000000000000000000000000000000000000000000000000000000007bffffffffffffffffffffffffffffffffffffffffffffffffffffffff1916827bffffffffffffffffffffffffffffffffffffffffffffffffffffffff1916149050919050565b60008073ffffffffffffffffffffffffffffffffffffffff166002600084815260200190815260200160002060009054906101000a900473ffffffffffffffffffffffffffffffffffffffff1673ffffffffffffffffffffffffffffffffffffffff1614159050919050565b600033905090565b816004600083815260200190815260200160002060006101000a81548173ffffffffffffffffffffffffffffffffffffffff021916908373ffffffffffffffffffffffffffffffffffffffff160217905550808273ffffffffffffffffffffffffffffffffffffffff16611d0b83610bbb565b73ffffffffffffffffffffffffffffffffffffffff167f8c5be1e5ebec7d5bd14f71427d1e84f3dd0314c0f7b2291e5b200ac8c7c3b92560405160405180910390a45050565b6000611d5c82611c24565b611d9b576040517f08c379a0000000000000000000000000000000000000000000000000000000008152600401611d929061454d565b60405180910390fd5b6000611da683610bbb565b90508073ffffffffffffffffffffffffffffffffffffffff168473ffffffffffffffffffffffffffffffffffffffff161480611de85750611de78185611823565b5b80611e2657508373ffffffffffffffffffffffffffffffffffffffff16611e0e84610801565b73ffffffffffffffffffffffffffffffffffffffff16145b91505092915050565b8273ffffffffffffffffffffffffffffffffffffffff16611e4f82610bbb565b73ffffffffffffffffffffffffffffffffffffffff1614611ea5576040517f08c379a0000000000000000000000000000000000000000000000000000000008152600401611e9c906145df565b60405180910390fd5b600073ffffffffffffffffffffffffffffffffffffffff168273ffffffffffffffffffffffffffffffffffffffff161415611f15576040517f08c379a0000000000000000000000000000000000000000000000000000000008152600401611f0c90614671565b60405180910390fd5b611f20838383612a84565b611f2b600082611c98565b6001600360008573ffffffffffffffffffffffffffffffffffffffff1673ffffffffffffffffffffffffffffffffffffffff1681526020019081526020016000206000828254611f7b9190614691565b925050819055506001600360008473ffffffffffffffffffffffffffffffffffffffff1673ffffffffffffffffffffffffffffffffffffffff1681526020019081526020016000206000828254611fd291906146c5565b92505081905550816002600083815260200190815260200160002060006101000a81548173ffffffffffffffffffffffffffffffffffffffff021916908373ffffffffffffffffffffffffffffffffffffffff160217905550808273ffffffffffffffffffffffffffffffffffffffff168473ffffffffffffffffffffffffffffffffffffffff167fddf252ad1be2c89b69c2b068fc378daa952ba7f163c4a11628f55a4df523b3ef60405160405180910390a4612091838383612a89565b505050565b60008060008084519050600092505b808210156122405760008583815181106120c2576120c16143fd565b5b602001015160f81c60f81b9050608060f81b817effffffffffffffffffffffffffffffffffffffffffffffffffffffffffffff191610156121115760018361210a91906146c5565b925061222c565b60e060f81b817effffffffffffffffffffffffffffffffffffffffffffffffffffffffffffff191610156121535760028361214c91906146c5565b925061222b565b60f060f81b817effffffffffffffffffffffffffffffffffffffffffffffffffffffffffffff191610156121955760038361218e91906146c5565b925061222a565b60f8801b817effffffffffffffffffffffffffffffffffffffffffffffffffffffffffffff191610156121d6576004836121cf91906146c5565b9250612229565b60fc60f81b817effffffffffffffffffffffffffffffffffffffffffffffffffffffffffffff191610156122185760058361221191906146c5565b9250612228565b60068361222591906146c5565b92505b5b5b5b5b5082806122389061445b565b9350506120a5565b829350505050919050565b8173ffffffffffffffffffffffffffffffffffffffff168373ffffffffffffffffffffffffffffffffffffffff1614156122ba576040517f08c379a00000000000000000000000000000000000000000000000000000000081526004016122b190614767565b60405180910390fd5b80600560008573ffffffffffffffffffffffffffffffffffffffff1673ffffffffffffffffffffffffffffffffffffffff16815260200190815260200160002060008473ffffffffffffffffffffffffffffffffffffffff1673ffffffffffffffffffffffffffffffffffffffff16815260200190815260200160002060006101000a81548160ff0219169083151502179055508173ffffffffffffffffffffffffffffffffffffffff168373ffffffffffffffffffffffffffffffffffffffff167f17307eab39ab6107e8899845ad3d59bd9653f200f220920489ca2b5937696c31836040516123ab919061304b565b60405180910390a3505050565b600081600001549050919050565b6060600082141561240e576040518060400160405280600181526020017f30000000000000000000000000000000000000000000000000000000000000008152509050612522565b600082905060005b600082146124405780806124299061445b565b915050600a8261243991906147b6565b9150612416565b60008167ffffffffffffffff81111561245c5761245b6132a9565b5b6040519080825280601f01601f19166020018201604052801561248e5781602001600182028036833780820191505090505b5090505b6000851461251b576001826124a79190614691565b9150600a856124b691906147e7565b60306124c291906146c5565b60f81b8183815181106124d8576124d76143fd565b5b60200101907effffffffffffffffffffffffffffffffffffffffffffffffffffffffffffff1916908160001a905350600a8561251491906147b6565b9450612492565b8093505050505b919050565b6125c3848484846040516024016125419493929190614818565b6040516020818303038152906040527f9fd009f5000000000000000000000000000000000000000000000000000000007bffffffffffffffffffffffffffffffffffffffffffffffffffffffff19166020820180517bffffffffffffffffffffffffffffffffffffffffffffffffffffffff8381831617835250505050612a5b565b50505050565b606060008251905060008114156125f2576040518060200160405280600081525091505061275c565b6000600360028361260391906146c5565b61260d91906147b6565b60046126199190614872565b9050600060208261262a91906146c5565b67ffffffffffffffff811115612643576126426132a9565b5b6040519080825280601f01601f1916602001820160405280156126755781602001600182028036833780820191505090505b5090506000604051806060016040528060408152602001614d49604091399050600181016020830160005b868110156127195760038101905062ffffff818a015116603f8160121c168401518060081b905060ff603f83600c1c1686015116810190508060081b905060ff603f8360061c1686015116810190508060081b905060ff603f831686015116810190508060e01b905080845260048401935050506126a0565b50600386066001811461273357600281146127435761274e565b613d3d60f01b600283035261274e565b603d60f81b60018303525b508484525050819450505050505b919050565b6127f78160405160240161277591906130ff565b6040516020818303038152906040527f41304fac000000000000000000000000000000000000000000000000000000007bffffffffffffffffffffffffffffffffffffffffffffffffffffffff19166020820180517bffffffffffffffffffffffffffffffffffffffffffffffffffffffff8381831617835250505050612a5b565b50565b612814828260405180602001604052806000815250612a8e565b5050565b61282182611c24565b612860576040517f08c379a00000000000000000000000000000000000000000000000000000000081526004016128579061493e565b60405180910390fd5b80600660008481526020019081526020016000209080519060200190612887929190612ef4565b505050565b6001816000016000828254019250508190555050565b6128ad848484611e2f565b6128b984848484612ae9565b6128f8576040517f08c379a00000000000000000000000000000000000000000000000000000000081526004016128ef906149d0565b60405180910390fd5b50505050565b606060405180602001604052806000815250905090565b606061292082611c24565b61295f576040517f08c379a000000000000000000000000000000000000000000000000000000000815260040161295690614a62565b60405180910390fd5b60006129696128fe565b9050600081511161298957604051806020016040528060008152506129b4565b80612993846123c6565b6040516020016129a49291906143d9565b6040516020818303038152906040525b915050919050565b612a568383836040516024016129d493929190614a82565b6040516020818303038152906040527fa3f5c739000000000000000000000000000000000000000000000000000000007bffffffffffffffffffffffffffffffffffffffffffffffffffffffff19166020820180517bffffffffffffffffffffffffffffffffffffffffffffffffffffffff8381831617835250505050612a5b565b505050565b60008151905060006a636f6e736f6c652e6c6f679050602083016000808483855afa5050505050565b505050565b505050565b612a988383612c71565b612aa56000848484612ae9565b612ae4576040517f08c379a0000000000000000000000000000000000000000000000000000000008152600401612adb906149d0565b60405180910390fd5b505050565b6000612b0a8473ffffffffffffffffffffffffffffffffffffffff16612e4b565b15612c64578373ffffffffffffffffffffffffffffffffffffffff1663150b7a02612b33611c90565b8786866040518563ffffffff1660e01b8152600401612b559493929190614b1c565b6020604051808303816000875af1925050508015612b9157506040513d601f19601f82011682018060405250810190612b8e9190614b7d565b60015b612c14573d8060008114612bc1576040519150601f19603f3d011682016040523d82523d6000602084013e612bc6565b606091505b50600081511415612c0c576040517f08c379a0000000000000000000000000000000000000000000000000000000008152600401612c03906149d0565b60405180910390fd5b805181602001fd5b63150b7a0260e01b7bffffffffffffffffffffffffffffffffffffffffffffffffffffffff1916817bffffffffffffffffffffffffffffffffffffffffffffffffffffffff191614915050612c69565b600190505b949350505050565b600073ffffffffffffffffffffffffffffffffffffffff168273ffffffffffffffffffffffffffffffffffffffff161415612ce1576040517f08c379a0000000000000000000000000000000000000000000000000000000008152600401612cd890614bf6565b60405180910390fd5b612cea81611c24565b15612d2a576040517f08c379a0000000000000000000000000000000000000000000000000000000008152600401612d2190614c62565b60405180910390fd5b612d3660008383612a84565b6001600360008473ffffffffffffffffffffffffffffffffffffffff1673ffffffffffffffffffffffffffffffffffffffff1681526020019081526020016000206000828254612d8691906146c5565b92505081905550816002600083815260200190815260200160002060006101000a81548173ffffffffffffffffffffffffffffffffffffffff021916908373ffffffffffffffffffffffffffffffffffffffff160217905550808273ffffffffffffffffffffffffffffffffffffffff16600073ffffffffffffffffffffffffffffffffffffffff167fddf252ad1be2c89b69c2b068fc378daa952ba7f163c4a11628f55a4df523b3ef60405160405180910390a4612e4760008383612a89565b5050565b6000808273ffffffffffffffffffffffffffffffffffffffff163b119050919050565b828054612e7a90613a37565b90600052602060002090601f016020900481019282612e9c5760008555612ee3565b82601f10612eb557803560ff1916838001178555612ee3565b82800160010185558215612ee3579182015b82811115612ee2578235825591602001919060010190612ec7565b5b509050612ef09190612f7a565b5090565b828054612f0090613a37565b90600052602060002090601f016020900481019282612f225760008555612f69565b82601f10612f3b57805160ff1916838001178555612f69565b82800160010185558215612f69579182015b82811115612f68578251825591602001919060010190612f4d565b5b509050612f769190612f7a565b5090565b5b80821115612f93576000816000905550600101612f7b565b5090565b6000604051905090565b600080fd5b600080fd5b60007fffffffff0000000000000000000000000000000000000000000000000000000082169050919050565b612fe081612fab565b8114612feb57600080fd5b50565b600081359050612ffd81612fd7565b92915050565b60006020828403121561301957613018612fa1565b5b600061302784828501612fee565b91505092915050565b60008115159050919050565b61304581613030565b82525050565b6000602082019050613060600083018461303c565b92915050565b600081519050919050565b600082825260208201905092915050565b60005b838110156130a0578082015181840152602081019050613085565b838111156130af576000848401525b50505050565b6000601f19601f8301169050919050565b60006130d182613066565b6130db8185613071565b93506130eb818560208601613082565b6130f4816130b5565b840191505092915050565b6000602082019050818103600083015261311981846130c6565b905092915050565b6000819050919050565b61313481613121565b811461313f57600080fd5b50565b6000813590506131518161312b565b92915050565b60006020828403121561316d5761316c612fa1565b5b600061317b84828501613142565b91505092915050565b600073ffffffffffffffffffffffffffffffffffffffff82169050919050565b60006131af82613184565b9050919050565b6131bf816131a4565b82525050565b60006020820190506131da60008301846131b6565b92915050565b6131e9816131a4565b81146131f457600080fd5b50565b600081359050613206816131e0565b92915050565b6000806040838503121561322357613222612fa1565b5b6000613231858286016131f7565b925050602061324285828601613142565b9150509250929050565b60008060006060848603121561326557613264612fa1565b5b6000613273868287016131f7565b9350506020613284868287016131f7565b925050604061329586828701613142565b9150509250925092565b600080fd5b600080fd5b7f4e487b7100000000000000000000000000000000000000000000000000000000600052604160045260246000fd5b6132e1826130b5565b810181811067ffffffffffffffff82111715613300576132ff6132a9565b5b80604052505050565b6000613313612f97565b905061331f82826132d8565b919050565b600067ffffffffffffffff82111561333f5761333e6132a9565b5b613348826130b5565b9050602081019050919050565b82818337600083830152505050565b600061337761337284613324565b613309565b905082815260208101848484011115613393576133926132a4565b5b61339e848285613355565b509392505050565b600082601f8301126133bb576133ba61329f565b5b81356133cb848260208601613364565b91505092915050565b6000602082840312156133ea576133e9612fa1565b5b600082013567ffffffffffffffff81111561340857613407612fa6565b5b613414848285016133a6565b91505092915050565b60006020828403121561343357613432612fa1565b5b6000613441848285016131f7565b91505092915050565b61345381613121565b82525050565b600060208201905061346e600083018461344a565b92915050565b600080fd5b600080fd5b60008083601f8401126134945761349361329f565b5b8235905067ffffffffffffffff8111156134b1576134b0613474565b5b6020830191508360018202830111156134cd576134cc613479565b5b9250929050565b600080600080600080606087890312156134f1576134f0612fa1565b5b600087013567ffffffffffffffff81111561350f5761350e612fa6565b5b61351b89828a0161347e565b9650965050602087013567ffffffffffffffff81111561353e5761353d612fa6565b5b61354a89828a0161347e565b9450945050604087013567ffffffffffffffff81111561356d5761356c612fa6565b5b61357989828a0161347e565b92509250509295509295509295565b6000806040838503121561359f5761359e612fa1565b5b600083013567ffffffffffffffff8111156135bd576135bc612fa6565b5b6135c9858286016133a6565b925050602083013567ffffffffffffffff8111156135ea576135e9612fa6565b5b6135f6858286016133a6565b9150509250929050565b6000806000806040858703121561361a57613619612fa1565b5b600085013567ffffffffffffffff81111561363857613637612fa6565b5b6136448782880161347e565b9450945050602085013567ffffffffffffffff81111561366757613666612fa6565b5b6136738782880161347e565b925092505092959194509250565b600061368c82613184565b9050919050565b61369c81613681565b82525050565b60006020820190506136b76000830184613693565b92915050565b600080602083850312156136d4576136d3612fa1565b5b600083013567ffffffffffffffff8111156136f2576136f1612fa6565b5b6136fe8582860161347e565b92509250509250929050565b61371381613030565b811461371e57600080fd5b50565b6000813590506137308161370a565b92915050565b6000806040838503121561374d5761374c612fa1565b5b600061375b858286016131f7565b925050602061376c85828601613721565b9150509250929050565b600067ffffffffffffffff821115613791576137906132a9565b5b61379a826130b5565b9050602081019050919050565b60006137ba6137b584613776565b613309565b9050828152602081018484840111156137d6576137d56132a4565b5b6137e1848285613355565b509392505050565b600082601f8301126137fe576137fd61329f565b5b813561380e8482602086016137a7565b91505092915050565b6000806000806080858703121561383157613830612fa1565b5b600061383f878288016131f7565b9450506020613850878288016131f7565b935050604061386187828801613142565b925050606085013567ffffffffffffffff81111561388257613881612fa6565b5b61388e878288016137e9565b91505092959194509250565b600080604083850312156138b1576138b0612fa1565b5b60006138bf858286016131f7565b92505060206138d0858286016131f7565b9150509250929050565b600081519050919050565b600082825260208201905092915050565b6000819050602082019050919050565b600082825260208201905092915050565b600061392282613066565b61392c8185613906565b935061393c818560208601613082565b613945816130b5565b840191505092915050565b600061395c8383613917565b905092915050565b6000602082019050919050565b600061397c826138da565b61398681856138e5565b935083602082028501613998856138f6565b8060005b858110156139d457848403895281516139b58582613950565b94506139c083613964565b925060208a0199505060018101905061399c565b50829750879550505050505092915050565b60006020820190508181036000830152613a008184613971565b905092915050565b7f4e487b7100000000000000000000000000000000000000000000000000000000600052602260045260246000fd5b60006002820490506001821680613a4f57607f821691505b60208210811415613a6357613a62613a08565b5b50919050565b7f4552433732313a20617070726f76656420717565727920666f72206e6f6e657860008201527f697374656e7420746f6b656e0000000000000000000000000000000000000000602082015250565b6000613ac5602c83613071565b9150613ad082613a69565b604082019050919050565b60006020820190508181036000830152613af481613ab8565b9050919050565b7f4552433732313a20617070726f76616c20746f2063757272656e74206f776e6560008201527f7200000000000000000000000000000000000000000000000000000000000000602082015250565b6000613b57602183613071565b9150613b6282613afb565b604082019050919050565b60006020820190508181036000830152613b8681613b4a565b9050919050565b7f4552433732313a20617070726f76652063616c6c6572206973206e6f74206f7760008201527f6e6572206e6f7220617070726f76656420666f7220616c6c0000000000000000602082015250565b6000613be9603883613071565b9150613bf482613b8d565b604082019050919050565b60006020820190508181036000830152613c1881613bdc565b9050919050565b7f4552433732313a207472616e736665722063616c6c6572206973206e6f74206f60008201527f776e6572206e6f7220617070726f766564000000000000000000000000000000602082015250565b6000613c7b603183613071565b9150613c8682613c1f565b604082019050919050565b60006020820190508181036000830152613caa81613c6e565b9050919050565b600081905092915050565b50565b6000613ccc600083613cb1565b9150613cd782613cbc565b600082019050919050565b6000613ced82613cbf565b9150819050919050565b7f4661696c656420746f207769746864726177204d415449430000000000000000600082015250565b6000613d2d601883613071565b9150613d3882613cf7565b602082019050919050565b60006020820190508181036000830152613d5c81613d20565b9050919050565b7f4552433732313a206f776e657220717565727920666f72206e6f6e657869737460008201527f656e7420746f6b656e0000000000000000000000000000000000000000000000602082015250565b6000613dbf602983613071565b9150613dca82613d63565b604082019050919050565b60006020820190508181036000830152613dee81613db2565b9050919050565b7f4552433732313a2062616c616e636520717565727920666f7220746865207a6560008201527f726f206164647265737300000000000000000000000000000000000000000000602082015250565b6000613e51602a83613071565b9150613e5c82613df5565b604082019050919050565b60006020820190508181036000830152613e8081613e44565b9050919050565b600081905092915050565b6000613e9e8385613e87565b9350613eab838584613355565b82840190509392505050565b6000613ec4828486613e92565b91508190509392505050565b6000613edc8385613071565b9350613ee9838584613355565b613ef2836130b5565b840190509392505050565b60006020820190508181036000830152613f18818486613ed0565b90509392505050565b7f4e6f7420456e6f756768204d4154494320706169640000000000000000000000600082015250565b6000613f57601583613071565b9150613f6282613f21565b602082019050919050565b60006020820190508181036000830152613f8681613f4a565b9050919050565b7f2e00000000000000000000000000000000000000000000000000000000000000600082015250565b6000613fc3600183613e87565b9150613fce82613f8d565b600182019050919050565b60008190508160005260206000209050919050565b60008154613ffb81613a37565b6140058186613e87565b94506001821660008114614020576001811461403157614064565b60ff19831686528186019350614064565b61403a85613fd9565b60005b8381101561405c5781548189015260018201915060208101905061403d565b838801955050505b50505092915050565b600061407a828587613e92565b915061408582613fb6565b91506140918284613fee565b9150819050949350505050565b60006140a982613066565b6140b38185613e87565b93506140c3818560208601613082565b80840191505092915050565b60006140db8286613fee565b91506140e7828561409e565b91506140f38284613fee565b9150819050949350505050565b7f7b226e616d65223a202200000000000000000000000000000000000000000000600082015250565b6000614136600a83613e87565b915061414182614100565b600a82019050919050565b7f222c20226465736372697074696f6e223a20224120446f6d61696e206f6e204560008201527f6d7069726520446f6d61696e204e616d652053657276696365222c2022696d6160208201527f6765223a2022646174613a696d6167652f7376672b786d6c3b6261736536342c604082015250565b60006141ce606083613e87565b91506141d98261414c565b606082019050919050565b7f222c226c656e677468223a220000000000000000000000000000000000000000600082015250565b600061421a600c83613e87565b9150614225826141e4565b600c82019050919050565b7f227d000000000000000000000000000000000000000000000000000000000000600082015250565b6000614266600283613e87565b915061427182614230565b600282019050919050565b600061428782614129565b9150614293828661409e565b915061429e826141c1565b91506142aa828561409e565b91506142b58261420d565b91506142c1828461409e565b91506142cc82614259565b9150819050949350505050565b7f646174613a6170706c69636174696f6e2f6a736f6e3b6261736536342c000000600082015250565b600061430f601d83613e87565b915061431a826142d9565b601d82019050919050565b600061433082614302565b915061433c828461409e565b915081905092915050565b7f45524337323155524953746f726167653a2055524920717565727920666f722060008201527f6e6f6e6578697374656e7420746f6b656e000000000000000000000000000000602082015250565b60006143a3603183613071565b91506143ae82614347565b604082019050919050565b600060208201905081810360008301526143d281614396565b9050919050565b60006143e5828561409e565b91506143f1828461409e565b91508190509392505050565b7f4e487b7100000000000000000000000000000000000000000000000000000000600052603260045260246000fd5b7f4e487b7100000000000000000000000000000000000000000000000000000000600052601160045260246000fd5b600061446682613121565b91507fffffffffffffffffffffffffffffffffffffffffffffffffffffffffffffffff8214156144995761449861442c565b5b600182019050919050565b600060408201905081810360008301526144be81856130c6565b905081810360208301526144d281846130c6565b90509392505050565b7f4552433732313a206f70657261746f7220717565727920666f72206e6f6e657860008201527f697374656e7420746f6b656e0000000000000000000000000000000000000000602082015250565b6000614537602c83613071565b9150614542826144db565b604082019050919050565b600060208201905081810360008301526145668161452a565b9050919050565b7f4552433732313a207472616e736665722066726f6d20696e636f72726563742060008201527f6f776e6572000000000000000000000000000000000000000000000000000000602082015250565b60006145c9602583613071565b91506145d48261456d565b604082019050919050565b600060208201905081810360008301526145f8816145bc565b9050919050565b7f4552433732313a207472616e7366657220746f20746865207a65726f2061646460008201527f7265737300000000000000000000000000000000000000000000000000000000602082015250565b600061465b602483613071565b9150614666826145ff565b604082019050919050565b6000602082019050818103600083015261468a8161464e565b9050919050565b600061469c82613121565b91506146a783613121565b9250828210156146ba576146b961442c565b5b828203905092915050565b60006146d082613121565b91506146db83613121565b9250827fffffffffffffffffffffffffffffffffffffffffffffffffffffffffffffffff038211156147105761470f61442c565b5b828201905092915050565b7f4552433732313a20617070726f766520746f2063616c6c657200000000000000600082015250565b6000614751601983613071565b915061475c8261471b565b602082019050919050565b6000602082019050818103600083015261478081614744565b9050919050565b7f4e487b7100000000000000000000000000000000000000000000000000000000600052601260045260246000fd5b60006147c182613121565b91506147cc83613121565b9250826147dc576147db614787565b5b828204905092915050565b60006147f282613121565b91506147fd83613121565b92508261480d5761480c614787565b5b828206905092915050565b6000608082019050818103600083015261483281876130c6565b9050818103602083015261484681866130c6565b9050818103604083015261485a81856130c6565b9050614869606083018461344a565b95945050505050565b600061487d82613121565b915061488883613121565b9250817fffffffffffffffffffffffffffffffffffffffffffffffffffffffffffffffff04831182151516156148c1576148c061442c565b5b828202905092915050565b7f45524337323155524953746f726167653a2055524920736574206f66206e6f6e60008201527f6578697374656e7420746f6b656e000000000000000000000000000000000000602082015250565b6000614928602e83613071565b9150614933826148cc565b604082019050919050565b600060208201905081810360008301526149578161491b565b9050919050565b7f4552433732313a207472616e7366657220746f206e6f6e20455243373231526560008201527f63656976657220696d706c656d656e7465720000000000000000000000000000602082015250565b60006149ba603283613071565b91506149c58261495e565b604082019050919050565b600060208201905081810360008301526149e9816149ad565b9050919050565b7f4552433732314d657461646174613a2055524920717565727920666f72206e6f60008201527f6e6578697374656e7420746f6b656e0000000000000000000000000000000000602082015250565b6000614a4c602f83613071565b9150614a57826149f0565b604082019050919050565b60006020820190508181036000830152614a7b81614a3f565b9050919050565b60006060820190508181036000830152614a9c81866130c6565b9050614aab602083018561344a565b8181036040830152614abd81846130c6565b9050949350505050565b600081519050919050565b600082825260208201905092915050565b6000614aee82614ac7565b614af88185614ad2565b9350614b08818560208601613082565b614b11816130b5565b840191505092915050565b6000608082019050614b3160008301876131b6565b614b3e60208301866131b6565b614b4b604083018561344a565b8181036060830152614b5d8184614ae3565b905095945050505050565b600081519050614b7781612fd7565b92915050565b600060208284031215614b9357614b92612fa1565b5b6000614ba184828501614b68565b91505092915050565b7f4552433732313a206d696e7420746f20746865207a65726f2061646472657373600082015250565b6000614be0602083613071565b9150614beb82614baa565b602082019050919050565b60006020820190508181036000830152614c0f81614bd3565b9050919050565b7f4552433732313a20746f6b656e20616c7265616479206d696e74656400000000600082015250565b6000614c4c601c83613071565b9150614c5782614c16565b602082019050919050565b60006020820190508181036000830152614c7b81614c3f565b905091905056fe0a2d2d2d2d2d2d2d2d2d2d2d2d2d2d2d2d2d2d2d2d2d2d2d2d2d2d2d2d2d2d2d2d2d2d2d2d2d2d2d2d2d2d2d2d2d2d2d2d2d2d2d2d2d2d2d2d5265676973746572696e672025732e2573206f6e2074686520636f6e7472616374207769746820746f6b656e49442025642d2d2d2d2d2d2d2d2d2d2d2d2d2d2d2d2d2d2d2d2d2d2d2d2d2d2d2d2d2d2d2d2d2d2d2d2d2d2d2d2d2d2d2d2d2d2d2d2d2d2d2d2d2d2d2d0a47657474696e6720416c6c206e616d65732066726f6d2074686520436f6e74726163744142434445464748494a4b4c4d4e4f505152535455565758595a6162636465666768696a6b6c6d6e6f707172737475767778797a303132333435363738392b2fa2646970667358221220f417e89d61897dae3cffbee917f2e011b3a03f231a6124403a63d3c060462abe64736f6c634300080a00333c73766720786d6c6e733d22687474703a2f2f7777772e77332e6f72672f323030302f737667222077696474683d2232373022206865696768743d22323730222066696c6c3d226e6f6e65223e3c706174682066696c6c3d2275726c282342292220643d224d302030683237307632373048307a222f3e3c646566733e3c66696c7465722069643d22412220636f6c6f722d696e746572706f6c6174696f6e2d66696c746572733d2273524742222066696c746572556e6974733d227573657253706163654f6e55736522206865696768743d22323730222077696474683d22323730223e3c666544726f70536861646f772064783d2230222064793d22312220737464446576696174696f6e3d22322220666c6f6f642d6f7061636974793d222e323235222077696474683d223230302522206865696768743d2232303025222f3e3c2f66696c7465723e3c2f646566733e3c7061746820643d224d37322e3836332034322e393439632d2e3636382d2e3338372d312e3432362d2e35392d322e3139372d2e3539732d312e3532392e3230342d322e3139372e35396c2d31302e30383120362e3033322d362e383520332e3933342d31302e30383120362e303332632d2e3636382e3338372d312e3432362e35392d322e3139372e3539732d312e3532392d2e3230342d322e3139372d2e35396c2d382e3031332d342e37323161342e353220342e35322030203020312d312e3538392d312e363136632d2e3338342d2e3636352d2e3539342d312e3431382d2e3630382d322e313837762d392e3331632d2e3031332d2e3737352e3138352d312e3533382e3537322d322e32303861342e323520342e323520302030203120312e3632352d312e3539356c372e3838342d342e3539632e3636382d2e33383720312e3432362d2e353920322e3139372d2e353973312e3532392e32303420322e3139372e35396c372e38383420342e353961342e353220342e353220302030203120312e35383920312e363136632e3338342e3636352e35393420312e3431382e36303820322e31383776362e3033326c362e38352d342e303635762d362e303332632e3031332d2e3737352d2e3138352d312e3533382d2e3537322d322e32303861342e323520342e32352030203020302d312e3632352d312e3539354c34312e3435362032342e3539632d2e3636382d2e3338372d312e3432362d2e35392d322e3139372d2e3539732d312e3532392e3230342d322e3139372e35396c2d31342e38363420382e36353561342e323520342e32352030203020302d312e36323520312e353935632d2e3338372e36372d2e35383520312e3433342d2e35373220322e3230387631372e343431632d2e3031332e3737352e31383520312e3533382e35373220322e32303861342e323520342e323520302030203020312e36323520312e3539356c31342e38363420382e363535632e3636382e33383720312e3432362e353920322e3139372e353973312e3532392d2e32303420322e3139372d2e35396c31302e3038312d352e39303120362e38352d342e3036352031302e3038312d352e393031632e3636382d2e33383720312e3432362d2e353920322e3139372d2e353973312e3532392e32303420322e3139372e35396c372e38383420342e353961342e353220342e353220302030203120312e35383920312e363136632e3338342e3636352e35393420312e3431382e36303820322e31383776392e333131632e3031332e3737352d2e31383520312e3533382d2e35373220322e32303861342e323520342e32352030203020312d312e36323520312e3539356c2d372e38383420342e373231632d2e3636382e3338372d312e3432362e35392d322e3139372e3539732d312e3532392d2e3230342d322e3139372d2e35396c2d372e3838342d342e353961342e353220342e35322030203020312d312e3538392d312e363136632d2e3338352d2e3636352d2e3539342d312e3431382d2e3630382d322e313837762d362e3033326c2d362e383520342e30363576362e303332632d2e3031332e3737352e31383520312e3533382e35373220322e32303861342e323520342e323520302030203020312e36323520312e3539356c31342e38363420382e363535632e3636382e33383720312e3432362e353920322e3139372e353973312e3532392d2e32303420322e3139372d2e35396c31342e3836342d382e363535632e3635372d2e33393420312e3230342d2e393520312e3538392d312e363136732e3539342d312e3431382e3630392d322e3138375635352e353338632e3031332d2e3737352d2e3138352d312e3533382d2e3537322d322e32303861342e323520342e32352030203020302d312e3632352d312e3539356c2d31342e3939332d382e3738367a222066696c6c3d2223666666222f3e3c646566733e3c6c696e6561724772616469656e742069643d2242222078313d2230222079313d2230222078323d22323730222079323d2232373022206772616469656e74556e6974733d227573657253706163654f6e557365223e3c73746f702073746f702d636f6c6f723d2223636235656565222f3e3c73746f70206f66667365743d2231222073746f702d636f6c6f723d2223306364376534222073746f702d6f7061636974793d222e3939222f3e3c2f6c696e6561724772616469656e743e3c2f646566733e3c7465787420783d2233322e352220793d223233312220666f6e742d73697a653d223237222066696c6c3d2223666666222066696c7465723d2275726c282341292220666f6e742d66616d696c793d22506c7573204a616b617274612053616e732c44656a6156752053616e732c4e6f746f20436f6c6f7220456d6f6a692c4170706c6520436f6c6f7220456d6f6a692c73616e732d73657269662220666f6e742d7765696768743d22626f6c64223e",
  "linkReferences": {},
  "deployedLinkReferences": {}
}